:100000000C942A000C942F040C9458040C94810432
:100010000C9447000C94A4080C9447000C944700DF
:100020000C9447000C9442080C9447000C94E10790
:100030000C9447000C9447000C9447000C94470024
:100040000C9447000C9447000C9447000C94470014
:100050000C94470011241FBECFE5D8E0DEBFCDBF12
:1000600010E0A0E6B0E0E8E2FBE102C005900D92EE
:10007000A038B107D9F720E0A0E8B0E001C01D9298
:10008000AA3DB207E1F70E94C1010C94920D0C94B5
:10009000000081E080938100089560E870E084E9C9
:1000A00090E00E94130180918000813011F40E9441
:1000B0009D0B089565E081E00E94B101089564E020
:1000C00081E00E94B1010895CF9364E081E00E9435
:1000D000A001C82F65E081E00E94A0018C0F09F00B
:1000E00052C085E0E0E6F0E0A9E9B0E001900D92B1
:1000F0008A95E1F785E0E5E6F0E0A4E9B0E001905B
:100100000D928A95E1F789E990E00E94F200C82FEC
:1001100069E470E089E990E00E945101C80F84E928
:1001200090E00E94F2008C0F81F50E94160B811165
:100130002EC086E0EAE6F0E0AEE8B0E001900D9275
:100140008A95E1F786E0E0E7F0E0A8E8B0E001900A
:100150000D928A95E1F786E0E6E7F0E0A2E8B0E0EC
:1001600001900D928A95E1F78EE890E00E943C0B99
:1001700088E890E00E943C0B82E890E00E943C0BF3
:10018000789480E005C081E003C081E001C081E097
:10019000CF910895809181008130E1F71092810024
:1001A0000E94850BF7CF833071F4623019F0633011
:1001B00029F012C0FA01108280E0089581E0FA016E
:1001C000808380E00895813049F4623049F482E010
:1001D000FA01808380E0089582E0089582E0089526
:1001E00082E00895CF93DF930097B9F0EC01698125
:1001F00040E088810E94D401811111C09B81992324
:1002000019F0933038F407C0698141E088810E9479
:10021000DF0201C081E01C8203C082E001C082E0F5
:10022000DF91CF910895EF92FF920F931F93CF9399
:10023000DF931F92CDB7DEB7009721F161157105ED
:1002400019F1FC012481211121C07B018C01618104
:10025000AE014F5F5F4F80810E946902F801838188
:10026000823018F0823049F013C081E099819111F9
:1002700080E0F701808380E00CC08981F7018083F2
:1002800080E007C082E005C082E003C084E001C0D6
:1002900081E00F90DF91CF911F910F91FF90EF9030
:1002A0000895CF92DF92FF920F931F93CF93DF9326
:1002B0001F92CDB7DEB7009771F16115710579F125
:1002C0006B018C01FC016181AE014F5F5F4F80814A
:1002D0000E94D300F82E811126C0F801838182305C
:1002E00018F0823031F00AC062E089810E94B903BF
:1002F00007C063E089810E94B90302C0FF24F39420
:10030000F11014C0B60189810E941C0461E089814A
:100310000E94EC030BC06894FF24F1F807C06894B6
:10032000FF24F1F803C06894FF24F1F88F2D0F909B
:10033000DF91CF911F910F91FF90DF90CF900895A3
:10034000843058F4683058F441E00E94D40191E0C0
:10035000811101C090E0892F089581E0089581E026
:100360000895843050F4683050F40E94900391E076
:10037000811101C090E0892F089581E0089581E006
:1003800008950E946400811102C00E94CA0080E0AA
:1003900090E00895683020F4843020F083E00895E0
:1003A00082E0089580E008951F93CF93DF93C82FD4
:1003B000D62F142F0E94CA01811187C0C13029F1A4
:1003C00038F0C23009F43EC0C33009F458C074C0DC
:1003D000113061F42AB381E090E002C0880F991FC8
:1003E000DA95E2F7822B8ABB80E06FC0111166C0FC
:1003F0002AB381E090E002C0880F991FDA95E2F7F6
:10040000809582238ABB80E060C0113061F427B3FD
:1004100081E090E002C0880F991FDA95E2F7822B05
:1004200087BB80E052C011114BC027B381E090E040
:1004300002C0880F991FDA95E2F78095822387BB67
:1004400080E043C0113061F424B381E090E002C049
:10045000880F991FDA95E2F7822B84BB80E035C0C4
:10046000111130C024B381E090E002C0880F991FC1
:10047000DA95E2F78095822384BB80E026C01130B4
:1004800061F421B381E090E002C0880F991FDA95F2
:10049000E2F7822B81BB80E018C0111115C021B397
:1004A00081E090E002C0880F991FDA95E2F780950D
:1004B000822381BB80E009C083E007C084E005C0DF
:1004C00084E003C084E001C084E0DF91CF911F91FC
:1004D00008950F931F93CF93DF93C82FD62F8A01D0
:1004E0000E94CA01811166C0C130F1F030F0C23003
:1004F00091F1C33009F446C05CC049B381E090E09B
:100500009C010D2E02C0220F331F0A94E2F7842FA4
:1005100090E08223932302C095958795DA95E2F7C0
:10052000F801808380E046C046B381E090E09C0102
:100530000D2E02C0220F331F0A94E2F7842F90E0A1
:100540008223932302C095958795DA95E2F7F80107
:10055000808380E02FC043B381E090E09C010D2EAA
:1005600002C0220F331F0A94E2F7842F90E0822307
:10057000932302C095958795DA95E2F7F801808379
:1005800080E018C040B381E090E09C010D2E02C0D5
:10059000220F331F0A94E2F7842F90E082239323E3
:1005A00002C095958795DA95E2F7F801808380E09F
:1005B00001C083E0DF91CF911F910F9108951F93A8
:1005C000CF93DF93C82FD62F142F0E94CA01811119
:1005D000A3C0123008F09DC0C23009F454C028F402
:1005E000CC2359F0C13061F196C0C33009F46EC01C
:1005F000C43009F090C083E08FC0112381F02BB389
:1006000081E090E0A0E0B0E004C0880F991FAA1F2D
:10061000BB1FDA95D2F7822B8BBB80E07DC02BB35A
:1006200081E090E0A0E0B0E004C0880F991FAA1F0D
:10063000BB1FDA95D2F7809582238BBB80E06CC01C
:10064000112381F028B381E090E0A0E0B0E004C085
:10065000880F991FAA1FBB1FDA95D2F7822B88BB80
:1006600080E05AC028B381E090E0A0E0B0E004C090
:10067000880F991FAA1FBB1FDA95D2F78095822396
:1006800088BB80E049C0112381F025B381E090E070
:10069000A0E0B0E004C0880F991FAA1FBB1FDA9525
:1006A000D2F7822B85BB80E037C025B381E090E094
:1006B000A0E0B0E004C0880F991FAA1FBB1FDA9505
:1006C000D2F78095822385BB80E026C0112381F07C
:1006D00022B381E090E0A0E0B0E004C0880F991F51
:1006E000AA1FBB1FDA95D2F7822B82BB80E014C011
:1006F00022B381E090E0A0E0B0E004C0880F991F31
:10070000AA1FBB1FDA95D2F78095822382BB80E0B7
:1007100003C084E001C080E0DF91CF911F91089574
:100720000F931F93CF93DF931F92CDB7DEB7182F90
:10073000062F0E94CA01811116C01982AE014F5FB7
:100740005F4F602F812F0E94690281110BC041E031
:100750008981811140E04983602F812F0E94DF024F
:1007600080E001C086E00F90DF91CF911F910F9143
:100770000895643058F5623010F4823049F18130C8
:1007800061F018F08230B1F025C085B78C7F85BF4D
:1007900085B7682B65BF80E0089585B7837F85BFE7
:1007A00085B770E0660F771F660F771F682B65BFF0
:1007B00080E00895633029F484B7806484BF80E0CA
:1007C000089584B78F7B84BF80E0089582E0089508
:1007D00082E0089581E00895623050F5813081F023
:1007E00018F08230C9F026C08BB78F7B8BBF8BB7D8
:1007F00090E4699FB0011124682B6BBF80E00895DD
:100800008BB78F778BBF8BB790E8699FB0011124AE
:10081000682B6BBF80E008958BB78F7D8BBF8BB744
:1008200090E2699FB0011124682B6BBF80E00895AE
:1008300084E0089581E008956115710561F08330C9
:1008400060F4E82FF0E0EE0FFF1FE256FF4F7183D8
:10085000608380E0089583E0089581E008951F9209
:100860000F920FB60F9211242F933F934F935F93E4
:100870006F937F938F939F93AF93BF93EF93FF9368
:10088000E0919E00F0919F00309709F00995FF914B
:10089000EF91BF91AF919F918F917F916F915F91F8
:1008A0004F913F912F910F900FBE0F901F90189571
:1008B0001F920F920FB60F9211242F933F934F93D5
:1008C0005F936F937F938F939F93AF93BF93EF93B8
:1008D000FF93E091A000F091A100309709F00995F5
:1008E000FF91EF91BF91AF919F918F917F916F9108
:1008F0005F914F913F912F910F900FBE0F901F90DE
:1009000018951F920F920FB60F9211242F933F93B9
:100910004F935F936F937F938F939F93AF93BF9307
:10092000EF93FF93E091A200F091A300309709F0BC
:100930000995FF91EF91BF91AF919F918F917F9119
:100940006F915F914F913F912F910F900FBE0F903C
:100950001F90189590E080E080C0292F30E0F901C9
:10096000EE0FFF1FEE0FFF1FE458FF4F4081413095
:1009700041F120F0423009F444C065C0220F331F1A
:10098000220F331FF901E458FF4F2181213009F470
:1009900061C018F0223059F058C023B7277F23BF19
:1009A00023B72F7B23BF29B7216029BF53C023B7AB
:1009B000286023BF23B72F7B23BF29B7226029BF1D
:1009C00049C0220F331F220F331FF901E458FF4F94
:1009D0002181222319F02330D0F53CC02FB52F7789
:1009E0002FBD2FB52F7B2FBD2EB52F7E2EBD2EB543
:1009F000277F2EBD2FB52D7F2FBD2FB52E7F2FBD6D
:100A000029C0220F331F220F331FF901E458FF4F73
:100A100021812130F9F018F0223059F01AC025B5A3
:100A2000277F25BD25B52F7B25BD29B7206429BF8C
:100A300011C023B7286023BF23B72F7B23BF29B75B
:100A4000206829BF07C081E005C083E003C083E0C0
:100A500001C083E0811104C09F5F992309F47DCF19
:100A60009FB790689FBF0895CF92DF92EF92FF9259
:100A7000CF93DF936A017B01813009F464C020F0D9
:100A8000823009F4C8C033C190E0FC01EE0FFF1FB3
:100A9000EE0FFF1FE458FF4F2181222329F023305E
:100AA00008F027C180E030C1880F991F880F991F77
:100AB000FC01E458FF4F62817381EB01D695C79525
:100AC000D695C795D695C79520E030E04AE754E41F
:100AD000C701B6010E94D90C6B017C01BE0180E008
:100AE00090E00E944B0C9B01AC01C701B6010E9433
:100AF000AA0B0E941C0CC72ED82EE92EFF24C092F0
:100B0000C000D092C100E092C200F092C300609396
:100B1000BF00662309F4EFC0619562BF8091C000F9
:100B20009091C100A091C200B091C3000196A11D97
:100B3000B11D8093C0009093C100A093C200B093F8
:100B4000C30080E0E1C090E0FC01EE0FFF1FEE0F5C
:100B5000FF1FE458FF4F2181222329F0233008F0A2
:100B6000CCC080E0D1C0880F991F880F991FFC016D
:100B7000E458FF4F62817381EB01D695C795D695F6
:100B8000C795D695C79520E030E04AE754E4C70101
:100B9000B6010E94D90C6B017C01BE0180E090E09F
:100BA0000E944B0C9B01AC01C701B6010E94AA0B2D
:100BB0000E941C0C6C01EE24FF24C092B700D0925E
:100BC000B800E092B900F092BA007093B60060935A
:100BD000B5006115710509F492C0719561957109AF
:100BE0008CB5862B8CBD8DB5872B8DBD8091AD00CE
:100BF0009091AE00A091AF00B091B0000196A11D00
:100C0000B11D8093AD009093AE00A093AF00B09360
:100C1000B00080E079C090E0FC01EE0FFF1FEE0F06
:100C2000FF1FE458FF4F2181222329F0233008F0D1
:100C300068C080E069C0880F991F880F991FFC0168
:100C4000E458FF4F62817381EB01D695C795D69525
:100C5000C795D695C79520E030E04AE754E4C70130
:100C6000B6010E94D90C6B017C01BE0180E090E0CE
:100C70000E944B0C9B01AC01C701B6010E94AA0B5C
:100C80000E941C0CC72ED82EE92EFF24C092AD0066
:100C9000D092AE00E092AF00F092B000DC01CB0148
:100CA0009927AA27BB278093A9009093AA00A09315
:100CB000AB00B093AC000097A105B10521F1682FFE
:100CC000619564BD8091AD009091AE00A091AF00A0
:100CD000B091B0000196A11DB11D8093AD0090931D
:100CE000AE00A093AF00B093B00080E00DC081E0F3
:100CF0000BC083E009C080E007C083E005C080E04E
:100D000003C083E001C080E0DF91CF91FF90EF90BE
:100D1000DF90CF900895813009F452C020F08230E6
:100D200009F49BC0E7C080917E0090917F008034E1
:100D3000910529F130F48130910559F00897A1F01F
:100D4000DBC0811521E0920729F18115944069F1FA
:100D5000D3C083B78B7F83BF83B78D7F83BF83B7B8
:100D6000816083BF80E0089583B78B7F83BF83B7A3
:100D7000826083BF83B78E7F83BF80E0089583B78F
:100D80008B7F83BF83B7826083BF83B7816083BF5C
:100D900080E0089583B7846083BF83B78D7F83BF6E
:100DA00083B78E7F83BF80E0089583B7846083BF5D
:100DB00083B78D7F83BF83B7816083BF80E0089551
:100DC00080918200909183008034910529F130F464
:100DD0008130910559F00897A1F090C0811521E06C
:100DE000920729F18115944069F188C08EB58B7FF7
:100DF0008EBD8EB58D7F8EBD8EB581608EBD80E03F
:100E000008958EB58B7F8EBD8EB582608EBD8EB5FA
:100E10008E7F8EBD80E008958EB58B7F8EBD8EB5A2
:100E200082608EBD8EB581608EBD80E008958EB5E6
:100E300084608EBD8EB58D7F8EBD8EB58E7F8EBD4E
:100E400080E008958EB584608EBD8EB58D7F8EBD99
:100E50008EB581608EBD80E0089580918200909172
:100E600083008034910529F130F48130910559F0E7
:100E70000897A1F045C0811521E0920729F181155D
:100E8000944069F13DC085B58B7F85BD85B58D7F6B
:100E900085BD85B5816085BD80E0089585B58B7F72
:100EA00085BD85B5826085BD85B58E7F85BD80E0B9
:100EB000089585B5846085BD85B58D7F85BD85B573
:100EC0008E7F85BD80E0089585B5846085BD85B53C
:100ED000826085BD85B58E7F85BD80E0089585B52E
:100EE000846085BD85B5826085BD85B5816085BD21
:100EF00080E0089583E0089583E0089583E00895F5
:100F000083E00895813079F018F08230B9F021C083
:100F100083B78B7F83BF83B78D7F83BF83B78E7F7C
:100F200083BF80E008958EB58B7F8EBD8EB58D7F9B
:100F30008EBD8EB58E7F8EBD80E0089585B58B7F8A
:100F400085BD85B58D7F85BD85B58E7F85BD80E0EE
:100F5000089581E00895813049F018F0823059F009
:100F60000FC089B7816089BF80E0089589B7846028
:100F700089BF80E0089589B7806489BF80E00895C3
:100F800081E0089561157105C1F0813051F018F0CC
:100F9000823069F014C07093C9006093C80080E08B
:100FA00008957093C7006093C60080E00895709321
:100FB000C5006093C40080E0089583E0089581E057
:100FC00008951F920F920FB60F9211242F933F9303
:100FD0004F935F936F937F938F939F93AF93BF9341
:100FE000EF93FF938091A40081113BC08091BB00DF
:100FF0009091BC00A091BD00B091BE000196A11DD2
:10100000B11D8093BB009093BC00A093BD00B09332
:10101000BE004091BB005091BC006091BD0070913A
:10102000BE008091C0009091C100A091C200B0911B
:10103000C300481759076A077B0799F4E091C80075
:10104000F091C900309709F009951092BB001092F9
:10105000BC001092BD001092BE008091BF0081952F
:1010600082BFFF91EF91BF91AF919F918F917F913F
:101070006F915F914F913F912F910F900FBE0F9005
:101080001F9018951F920F920FB60F9211242F9355
:101090003F934F935F936F937F938F939F93AF9300
:1010A000BF93EF93FF938091B1009091B200A09114
:1010B000B300B091B4000196A11DB11D8093B100A1
:1010C0009093B200A093B300B093B4004091B100EC
:1010D0005091B2006091B3007091B4008091B7005C
:1010E0009091B800A091B900B091BA004817590783
:1010F0006A077B07C1F4E091C600F091C700309702
:1011000009F009951092B1001092B2001092B3004C
:101110001092B4008091B5009091B60091958195A0
:1011200091099DBD8CBDFF91EF91BF91AF919F91B2
:101130008F917F916F915F914F913F912F910F9080
:101140000FBE0F901F9018951F920F920FB60F921F
:1011500011242F933F934F935F936F937F938F93BC
:101160009F93AF93BF93EF93FF938091A5009091CE
:10117000A600A091A700B091A8000196A11DB11DE5
:101180008093A5009093A600A093A700B093A80019
:101190004091A5005091A6006091A7007091A80011
:1011A0008091AD009091AE00A091AF00B091B000E1
:1011B000481759076A077B0799F4E091C400F0913A
:1011C000C500309709F009951092A5001092A6006D
:1011D0001092A7001092A8008091A900819584BD6B
:1011E000FF91EF91BF91AF919F918F917F916F91FF
:1011F0005F914F913F912F910F900FBE0F901F90D5
:1012000018951F93CF93DF93282F30E0F901EE0F4D
:10121000FF1FE053FF4F40815181452BF9F413C06C
:10122000D9011196AA0FBB1FA053BF4F4D915C91DE
:101230001197220F331FF901E053FF4F5183408371
:101240001D921C928F5F282F30E04091CB0050E020
:1012500041505109241735071CF390C06091CB0011
:1012600070E0615071092617370771F5811112C0BE
:1012700085C0220F331FF901E053FF4FD183C08394
:10128000440F551FFA01E053FF4FB183A0838150F3
:1012900009F474C0282F30E0F901EE0FFF1FE0536E
:1012A000FF4FA081B18111966C911197A901415016
:1012B0005109FA01EE0FFF1FE053FF4FC081D181AA
:1012C00099816917B0F25AC0811112C03EC0220F35
:1012D000331FF901E053FF4FD183C083440F551FE3
:1012E000FA01E053FF4FB183A083915011F42DC058
:1012F000982F292F30E0F901EE0FFF1FE053FF4F29
:10130000A081B18111961C911197A90141505109F9
:10131000FA01EE0FFF1FE053FF4FC081D181E98139
:101320001E17A8F212C06217730741F1220F331F74
:10133000F901E053FF4FD183C083440F551FFA01D9
:10134000E053FF4FB183A0838F5F282F30E0F90176
:10135000EE0FFF1FE053FF4FA081B18111961C914A
:101360001197A9014F5F5F4FFA01EE0FFF1FE05386
:10137000FF4FC081D18199819117A8F2DF91CF9160
:101380001F9108958091CC009091CD00A091CE0046
:10139000B091CF000196A11DB11D8093CC00909318
:1013A000CD00A093CE00B093CF0083E08093CA001D
:1013B0000895CF93DF9300D000D01F92CDB7DEB752
:1013C000DC018091CA008823C9F19E012F5F3F4F45
:1013D00085E0F90111928A95E9F790E013C0E92FB1
:1013E000F0E0EE0FFF1FE053FF4F0190F081E02D82
:1013F0002081E1E0F0E0EC0FFD1FE20FF11D21E0A4
:1014000020839F5F2091CB00921748F390E00DC09E
:10141000E1E0F0E0EC0FFD1FE90FF11D808181118B
:1014200003C09C9381E004C09F5F953088F380E007
:10143000882311F080E003C085E001C082E00F90B6
:101440000F900F900F900F90DF91CF910895CF9252
:10145000DF92EF92FF9269017A0110C0A701960115
:101460000E94560D562F472F382F292F6C2D7D2D7A
:101470008E2D9F2DC52ED42EE32EF22EC114D10415
:10148000E104F10459F7FF90EF90DF90CF900895B9
:101490004F925F926F927F928F929F92AF92BF9284
:1014A000CF92DF92EF92FF924B015C0169017A01CA
:1014B0000E94270A2B013C01A5019401C701B60136
:1014C0000E94460DA30192010E94560DCA01B90166
:1014D000FF90EF90DF90CF90BF90AF909F908F9054
:1014E0007F906F905F904F9008950F931F93CF93CD
:1014F0008C01E091D000F091D10082819381A0E035
:10150000B0E0F80180839183A283B383C0E01AC066
:10151000EC2FF0E0EE0FFF1FE053FF4F0190F08142
:10152000E02D2281338140E050E0F801608171813B
:10153000828193810E94480AF801608371838283CB
:101540009383CF5F8091CB00C81710F3CF911F9189
:101550000F910895EF92FF921F93CF93DF9300D0E6
:1015600000D0CDB7DEB719821A821B821C8280910F
:10157000CB00882309F450C0CE0101960E94750A61
:1015800010E026C0E12FF0E0EE0FFF1FE053FF4F09
:10159000E080F180D70112962D913C91139740E0A5
:1015A00050E06091CC007091CD008091CE00909180
:1015B000CF000E94560D672B682B692B41F4D70191
:1015C0001496ED91FC911597309709F009951F5FDE
:1015D0008091CB001817B0F28091CA00833019F4C3
:1015E00082E08093CA0049815A816B817C8180911D
:1015F000CC009091CD00A091CE00B091CF004817C3
:1016000059076A077B0741F41092CC001092CD0075
:101610001092CE001092CF000F900F900F900F906D
:10162000DF91CF911F91FF90EF9008950E94AA043F
:101630008330D1F040E050E060EA71E480E00E9445
:101640003405833099F080E00E94AB07833081F04D
:1016500062EC79E080E00E94C207833059F081E0BB
:101660008093CA0080E0089581E0089581E00895A4
:1016700081E0089581E00895EF92FF921F93CF9348
:10168000DF931F92CDB7DEB7FC019091CA0099237A
:1016900059F1309759F182819381892B49F18481E5
:1016A0009581892B39F18091CB00853029F17F011B
:1016B0001982CE0101960E94D909182F81111DC0EF
:1016C0008981F70180838091CB00E82FF0E0EE0F55
:1016D000FF1FE053FF4FF182E08291E0980F90935B
:1016E000CB000E94010909C012E007C013E005C049
:1016F00013E003C013E001C015E0812F0F90DF91CC
:10170000CF911F91FF90EF9008958091CA00813092
:1017100099F480E00E948B06833071F082E0809320
:10172000CA0004C0833011F40E94AA0A8091CA0042
:101730009EEF980F9230B0F308958091CA008823ED
:1017400041F080E00E948207833019F081E08093AD
:10175000CA0008950E94BE0B0C949F0C0E94980C26
:1017600058F00E94910C40F029F45F3F29F00C944E
:10177000880C51110C94D30C0C948E0C0E94B00C5C
:1017800068F39923B1F3552391F3951B550BBB27B0
:10179000AA2762177307840738F09F5F5F4F220FF5
:1017A000331F441FAA1FA9F335D00E2E3AF0E0E8EC
:1017B00032D091505040E695001CCAF72BD0FE2F36
:1017C00029D0660F771F881FBB1F261737074807CA
:1017D000AB07B0E809F0BB0B802DBF01FF27935882
:1017E0005F4F3AF09E3F510578F00C94880C0C94B2
:1017F000D30C5F3FE4F3983ED4F3869577956795D5
:10180000B795F7959F5FC9F7880F911D96958795B6
:1018100097F90895E1E0660F771F881FBB1F6217D5
:1018200073078407BA0720F0621B730B840BBA0B93
:10183000EE1F88F7E09508950E94B80C88F09F5736
:1018400098F0B92F9927B751B0F0E1F0660F771FE4
:10185000881F991F1AF0BA95C9F714C0B13091F0DA
:101860000E94D20CB1E008950C94D20C672F782F0F
:101870008827B85F39F0B93FCCF38695779567959F
:10188000B395D9F73EF490958095709561957F4F0B
:101890008F4F9F4F0895E89409C097FB3EF49095B1
:1018A0008095709561957F4F8F4F9F4F9923A9F039
:1018B000F92F96E9BB279395F695879577956795C8
:1018C000B795F111F8CFFAF4BB0F11F460FF1BC00C
:1018D0006F5F7F4F8F4F9F4F16C0882311F096E99F
:1018E00011C0772321F09EE8872F762F05C066234D
:1018F00071F096E8862F70E060E02AF09A95660F06
:10190000771F881FDAF7880F9695879597F90895BE
:1019100097F99F6780E870E060E008959FEF80ECA2
:10192000089500240A941616170618060906089545
:1019300000240A9412161306140605060895092EAB
:101940000394000C11F4882352F0BB0F40F4BF2B1A
:1019500011F460FF04C06F5F7F4F8F4F9F4F08955A
:1019600057FD9058440F551F59F05F3F71F0479550
:10197000880F97FB991F61F09F3F79F08795089535
:10198000121613061406551FF2CF4695F1DF08C054
:10199000161617061806991FF1CF86957105610571
:1019A00008940895E894BB2766277727CB0197F919
:1019B00008950E94EC0C0C949F0C0E94910C38F03E
:1019C0000E94980C20F0952311F00C94880C0C9434
:1019D0008E0C11240C94D30C0E94B00C70F3959FC4
:1019E000C1F3950F50E0551F629FF001729FBB2716
:1019F000F00DB11D639FAA27F00DB11DAA1F649FB2
:101A00006627B00DA11D661F829F2227B00DA11D64
:101A1000621F739FB00DA11D621F839FA00D611DEA
:101A2000221F749F3327A00D611D231F849F600D0B
:101A3000211D822F762F6A2F11249F5750409AF034
:101A4000F1F088234AF0EE0FFF1FBB1F661F771FC0
:101A5000881F91505040A9F79E3F510580F00C948B
:101A6000880C0C94D30C5F3FE4F3983ED4F3869536
:101A700077956795B795F795E7959F5FC1F7FE2B2B
:101A8000880F911D9695879597F90895DB018F939F
:101A90009F930E94780DBF91AF91A29F800D911DE1
:101AA000A39F900DB29F900D11240895A1E21A2ECC
:101AB000AA1BBB1BFD010DC0AA1FBB1FEE1FFF1FF2
:101AC000A217B307E407F50720F0A21BB30BE40B42
:101AD000F50B661F771F881F991F1A9469F7609589
:101AE0007095809590959B01AC01BD01CF01089543
:101AF0000E94830DA59F900DB49F900DA49F800D13
:101B0000911D11240895A29FB001B39FC001A39F0E
:101B1000700D811D1124911DB29F700D811D112426
:081B2000911D0895F894FFCF18
:101B28000102000200020400020000010F005F0031
:101B3800000119005A00000001004D00000040009B
:00000001FF
